{
  "contractName": "RouterEventEmitter",
  "abi": [
    {
      "anonymous": false,
      "inputs": [
        {
          "indexed": false,
          "internalType": "uint256[]",
          "name": "amounts",
          "type": "uint256[]"
        }
      ],
      "name": "Amounts",
      "type": "event"
    },
    {
      "stateMutability": "payable",
      "type": "receive"
    },
    {
      "inputs": [
        {
          "internalType": "address",
          "name": "router",
          "type": "address"
        },
        {
          "internalType": "uint256",
          "name": "amountIn",
          "type": "uint256"
        },
        {
          "internalType": "uint256",
          "name": "amountOutMin",
          "type": "uint256"
        },
        {
          "internalType": "address[]",
          "name": "path",
          "type": "address[]"
        },
        {
          "internalType": "address",
          "name": "to",
          "type": "address"
        },
        {
          "internalType": "uint256",
          "name": "deadline",
          "type": "uint256"
        }
      ],
      "name": "swapExactTokensForTokens",
      "outputs": [],
      "stateMutability": "nonpayable",
      "type": "function"
    },
    {
      "inputs": [
        {
          "internalType": "address",
          "name": "router",
          "type": "address"
        },
        {
          "internalType": "uint256",
          "name": "amountOut",
          "type": "uint256"
        },
        {
          "internalType": "uint256",
          "name": "amountInMax",
          "type": "uint256"
        },
        {
          "internalType": "address[]",
          "name": "path",
          "type": "address[]"
        },
        {
          "internalType": "address",
          "name": "to",
          "type": "address"
        },
        {
          "internalType": "uint256",
          "name": "deadline",
          "type": "uint256"
        }
      ],
      "name": "swapTokensForExactTokens",
      "outputs": [],
      "stateMutability": "nonpayable",
      "type": "function"
    },
    {
      "inputs": [
        {
          "internalType": "address",
          "name": "router",
          "type": "address"
        },
        {
          "internalType": "uint256",
          "name": "amountOutMin",
          "type": "uint256"
        },
        {
          "internalType": "address[]",
          "name": "path",
          "type": "address[]"
        },
        {
          "internalType": "address",
          "name": "to",
          "type": "address"
        },
        {
          "internalType": "uint256",
          "name": "deadline",
          "type": "uint256"
        }
      ],
      "name": "swapExactETHForTokens",
      "outputs": [],
      "stateMutability": "payable",
      "type": "function"
    },
    {
      "inputs": [
        {
          "internalType": "address",
          "name": "router",
          "type": "address"
        },
        {
          "internalType": "uint256",
          "name": "amountOut",
          "type": "uint256"
        },
        {
          "internalType": "uint256",
          "name": "amountInMax",
          "type": "uint256"
        },
        {
          "internalType": "address[]",
          "name": "path",
          "type": "address[]"
        },
        {
          "internalType": "address",
          "name": "to",
          "type": "address"
        },
        {
          "internalType": "uint256",
          "name": "deadline",
          "type": "uint256"
        }
      ],
      "name": "swapTokensForExactETH",
      "outputs": [],
      "stateMutability": "nonpayable",
      "type": "function"
    },
    {
      "inputs": [
        {
          "internalType": "address",
          "name": "router",
          "type": "address"
        },
        {
          "internalType": "uint256",
          "name": "amountIn",
          "type": "uint256"
        },
        {
          "internalType": "uint256",
          "name": "amountOutMin",
          "type": "uint256"
        },
        {
          "internalType": "address[]",
          "name": "path",
          "type": "address[]"
        },
        {
          "internalType": "address",
          "name": "to",
          "type": "address"
        },
        {
          "internalType": "uint256",
          "name": "deadline",
          "type": "uint256"
        }
      ],
      "name": "swapExactTokensForETH",
      "outputs": [],
      "stateMutability": "nonpayable",
      "type": "function"
    },
    {
      "inputs": [
        {
          "internalType": "address",
          "name": "router",
          "type": "address"
        },
        {
          "internalType": "uint256",
          "name": "amountOut",
          "type": "uint256"
        },
        {
          "internalType": "address[]",
          "name": "path",
          "type": "address[]"
        },
        {
          "internalType": "address",
          "name": "to",
          "type": "address"
        },
        {
          "internalType": "uint256",
          "name": "deadline",
          "type": "uint256"
        }
      ],
      "name": "swapETHForExactTokens",
      "outputs": [],
      "stateMutability": "payable",
      "type": "function"
    }
  ],
  "bytecode": "0x608060405234801561001057600080fd5b506116e7806100206000396000f3fe6080604052600436106100595760003560e01c806322b5841014610065578063375734d9146101495780639c91fcb51461022d578063b05f579e14610311578063fa3219d5146103de578063fde1adda146104c257610060565b3661006057005b600080fd5b34801561007157600080fd5b50610147600480360360c081101561008857600080fd5b81019080803573ffffffffffffffffffffffffffffffffffffffff1690602001909291908035906020019092919080359060200190929190803590602001906401000000008111156100d957600080fd5b8201836020820111156100eb57600080fd5b8035906020019184602083028401116401000000008311171561010d57600080fd5b9091929391929390803573ffffffffffffffffffffffffffffffffffffffff1690602001909291908035906020019092919050505061058f565b005b34801561015557600080fd5b5061022b600480360360c081101561016c57600080fd5b81019080803573ffffffffffffffffffffffffffffffffffffffff1690602001909291908035906020019092919080359060200190929190803590602001906401000000008111156101bd57600080fd5b8201836020820111156101cf57600080fd5b803590602001918460208302840111640100000000831117156101f157600080fd5b9091929391929390803573ffffffffffffffffffffffffffffffffffffffff1690602001909291908035906020019092919050505061086d565b005b34801561023957600080fd5b5061030f600480360360c081101561025057600080fd5b81019080803573ffffffffffffffffffffffffffffffffffffffff1690602001909291908035906020019092919080359060200190929190803590602001906401000000008111156102a157600080fd5b8201836020820111156102b357600080fd5b803590602001918460208302840111640100000000831117156102d557600080fd5b9091929391929390803573ffffffffffffffffffffffffffffffffffffffff16906020019092919080359060200190929190505050610b4b565b005b6103dc600480360360a081101561032757600080fd5b81019080803573ffffffffffffffffffffffffffffffffffffffff169060200190929190803590602001909291908035906020019064010000000081111561036e57600080fd5b82018360208201111561038057600080fd5b803590602001918460208302840111640100000000831117156103a257600080fd5b9091929391929390803573ffffffffffffffffffffffffffffffffffffffff16906020019092919080359060200190929190505050610e29565b005b3480156103ea57600080fd5b506104c0600480360360c081101561040157600080fd5b81019080803573ffffffffffffffffffffffffffffffffffffffff16906020019092919080359060200190929190803590602001909291908035906020019064010000000081111561045257600080fd5b82018360208201111561046457600080fd5b8035906020019184602083028401116401000000008311171561048657600080fd5b9091929391929390803573ffffffffffffffffffffffffffffffffffffffff169060200190929190803590602001909291905050506110fe565b005b61058d600480360360a08110156104d857600080fd5b81019080803573ffffffffffffffffffffffffffffffffffffffff169060200190929190803590602001909291908035906020019064010000000081111561051f57600080fd5b82018360208201111561053157600080fd5b8035906020019184602083028401116401000000008311171561055357600080fd5b9091929391929390803573ffffffffffffffffffffffffffffffffffffffff169060200190929190803590602001909291905050506113dc565b005b600060608873ffffffffffffffffffffffffffffffffffffffff16638803dbee60e01b89898989898960405160240180878152602001868152602001806020018473ffffffffffffffffffffffffffffffffffffffff1673ffffffffffffffffffffffffffffffffffffffff1681526020018381526020018281038252868682818152602001925060200280828437600081840152601f19601f820116905080830192505050975050505050505050604051602081830303815290604052907bffffffffffffffffffffffffffffffffffffffffffffffffffffffff19166020820180517bffffffffffffffffffffffffffffffffffffffffffffffffffffffff83818316178352505050506040518082805190602001908083835b602083106106ce57805182526020820191506020810190506020830392506106ab565b6001836020036101000a038019825116818451168082178552505050505050905001915050600060405180830381855af49150503d806000811461072e576040519150601f19603f3d011682016040523d82523d6000602084013e610733565b606091505b50915091508161073f57fe5b7f4cc17991e3610e3400e74a8306aa421daaee1e3446fa22b490604610999e10b381806020019051602081101561077557600080fd5b810190808051604051939291908464010000000082111561079557600080fd5b838201915060208201858111156107ab57600080fd5b82518660208202830111640100000000821117156107c857600080fd5b8083526020830192505050908051906020019060200280838360005b838110156107ff5780820151818401526020810190506107e4565b505050509050016040525050506040518080602001828103825283818151815260200191508051906020019060200280838360005b8381101561084f578082015181840152602081019050610834565b505050509050019250505060405180910390a1505050505050505050565b600060608873ffffffffffffffffffffffffffffffffffffffff166338ed173960e01b89898989898960405160240180878152602001868152602001806020018473ffffffffffffffffffffffffffffffffffffffff1673ffffffffffffffffffffffffffffffffffffffff1681526020018381526020018281038252868682818152602001925060200280828437600081840152601f19601f820116905080830192505050975050505050505050604051602081830303815290604052907bffffffffffffffffffffffffffffffffffffffffffffffffffffffff19166020820180517bffffffffffffffffffffffffffffffffffffffffffffffffffffffff83818316178352505050506040518082805190602001908083835b602083106109ac5780518252602082019150602081019050602083039250610989565b6001836020036101000a038019825116818451168082178552505050505050905001915050600060405180830381855af49150503d8060008114610a0c576040519150601f19603f3d011682016040523d82523d6000602084013e610a11565b606091505b509150915081610a1d57fe5b7f4cc17991e3610e3400e74a8306aa421daaee1e3446fa22b490604610999e10b3818060200190516020811015610a5357600080fd5b8101908080516040519392919084640100000000821115610a7357600080fd5b83820191506020820185811115610a8957600080fd5b8251866020820283011164010000000082111715610aa657600080fd5b8083526020830192505050908051906020019060200280838360005b83811015610add578082015181840152602081019050610ac2565b505050509050016040525050506040518080602001828103825283818151815260200191508051906020019060200280838360005b83811015610b2d578082015181840152602081019050610b12565b505050509050019250505060405180910390a1505050505050505050565b600060608873ffffffffffffffffffffffffffffffffffffffff166318cbafe560e01b89898989898960405160240180878152602001868152602001806020018473ffffffffffffffffffffffffffffffffffffffff1673ffffffffffffffffffffffffffffffffffffffff1681526020018381526020018281038252868682818152602001925060200280828437600081840152601f19601f820116905080830192505050975050505050505050604051602081830303815290604052907bffffffffffffffffffffffffffffffffffffffffffffffffffffffff19166020820180517bffffffffffffffffffffffffffffffffffffffffffffffffffffffff83818316178352505050506040518082805190602001908083835b60208310610c8a5780518252602082019150602081019050602083039250610c67565b6001836020036101000a038019825116818451168082178552505050505050905001915050600060405180830381855af49150503d8060008114610cea576040519150601f19603f3d011682016040523d82523d6000602084013e610cef565b606091505b509150915081610cfb57fe5b7f4cc17991e3610e3400e74a8306aa421daaee1e3446fa22b490604610999e10b3818060200190516020811015610d3157600080fd5b8101908080516040519392919084640100000000821115610d5157600080fd5b83820191506020820185811115610d6757600080fd5b8251866020820283011164010000000082111715610d8457600080fd5b8083526020830192505050908051906020019060200280838360005b83811015610dbb578082015181840152602081019050610da0565b505050509050016040525050506040518080602001828103825283818151815260200191508051906020019060200280838360005b83811015610e0b578082015181840152602081019050610df0565b505050509050019250505060405180910390a1505050505050505050565b600060608773ffffffffffffffffffffffffffffffffffffffff1663fb3bdb4160e01b888888888860405160240180868152602001806020018473ffffffffffffffffffffffffffffffffffffffff1673ffffffffffffffffffffffffffffffffffffffff1681526020018381526020018281038252868682818152602001925060200280828437600081840152601f19601f8201169050808301925050509650505050505050604051602081830303815290604052907bffffffffffffffffffffffffffffffffffffffffffffffffffffffff19166020820180517bffffffffffffffffffffffffffffffffffffffffffffffffffffffff83818316178352505050506040518082805190602001908083835b60208310610f605780518252602082019150602081019050602083039250610f3d565b6001836020036101000a038019825116818451168082178552505050505050905001915050600060405180830381855af49150503d8060008114610fc0576040519150601f19603f3d011682016040523d82523d6000602084013e610fc5565b606091505b509150915081610fd157fe5b7f4cc17991e3610e3400e74a8306aa421daaee1e3446fa22b490604610999e10b381806020019051602081101561100757600080fd5b810190808051604051939291908464010000000082111561102757600080fd5b8382019150602082018581111561103d57600080fd5b825186602082028301116401000000008211171561105a57600080fd5b8083526020830192505050908051906020019060200280838360005b83811015611091578082015181840152602081019050611076565b505050509050016040525050506040518080602001828103825283818151815260200191508051906020019060200280838360005b838110156110e15780820151818401526020810190506110c6565b505050509050019250505060405180910390a15050505050505050565b600060608873ffffffffffffffffffffffffffffffffffffffff16634a25d94a60e01b89898989898960405160240180878152602001868152602001806020018473ffffffffffffffffffffffffffffffffffffffff1673ffffffffffffffffffffffffffffffffffffffff1681526020018381526020018281038252868682818152602001925060200280828437600081840152601f19601f820116905080830192505050975050505050505050604051602081830303815290604052907bffffffffffffffffffffffffffffffffffffffffffffffffffffffff19166020820180517bffffffffffffffffffffffffffffffffffffffffffffffffffffffff83818316178352505050506040518082805190602001908083835b6020831061123d578051825260208201915060208101905060208303925061121a565b6001836020036101000a038019825116818451168082178552505050505050905001915050600060405180830381855af49150503d806000811461129d576040519150601f19603f3d011682016040523d82523d6000602084013e6112a2565b606091505b5091509150816112ae57fe5b7f4cc17991e3610e3400e74a8306aa421daaee1e3446fa22b490604610999e10b38180602001905160208110156112e457600080fd5b810190808051604051939291908464010000000082111561130457600080fd5b8382019150602082018581111561131a57600080fd5b825186602082028301116401000000008211171561133757600080fd5b8083526020830192505050908051906020019060200280838360005b8381101561136e578082015181840152602081019050611353565b505050509050016040525050506040518080602001828103825283818151815260200191508051906020019060200280838360005b838110156113be5780820151818401526020810190506113a3565b505050509050019250505060405180910390a1505050505050505050565b600060608773ffffffffffffffffffffffffffffffffffffffff16637ff36ab560e01b888888888860405160240180868152602001806020018473ffffffffffffffffffffffffffffffffffffffff1673ffffffffffffffffffffffffffffffffffffffff1681526020018381526020018281038252868682818152602001925060200280828437600081840152601f19601f8201169050808301925050509650505050505050604051602081830303815290604052907bffffffffffffffffffffffffffffffffffffffffffffffffffffffff19166020820180517bffffffffffffffffffffffffffffffffffffffffffffffffffffffff83818316178352505050506040518082805190602001908083835b6020831061151357805182526020820191506020810190506020830392506114f0565b6001836020036101000a038019825116818451168082178552505050505050905001915050600060405180830381855af49150503d8060008114611573576040519150601f19603f3d011682016040523d82523d6000602084013e611578565b606091505b50915091508161158457fe5b7f4cc17991e3610e3400e74a8306aa421daaee1e3446fa22b490604610999e10b38180602001905160208110156115ba57600080fd5b81019080805160405193929190846401000000008211156115da57600080fd5b838201915060208201858111156115f057600080fd5b825186602082028301116401000000008211171561160d57600080fd5b8083526020830192505050908051906020019060200280838360005b83811015611644578082015181840152602081019050611629565b505050509050016040525050506040518080602001828103825283818151815260200191508051906020019060200280838360005b83811015611694578082015181840152602081019050611679565b505050509050019250505060405180910390a1505050505050505056fea2646970667358221220f4a24433a61868e7abe54ad1f93b6141243ca66508cc0888bca1a3664778bddd64736f6c63430006060033",
  "immutableReferences": {},
  "source": "pragma solidity =0.6.6;\n\nimport '../interfaces/IUniswapV2Router01.sol';\n\ncontract RouterEventEmitter {\n    event Amounts(uint[] amounts);\n\n    receive() external payable {}\n\n    function swapExactTokensForTokens(\n        address router,\n        uint amountIn,\n        uint amountOutMin,\n        address[] calldata path,\n        address to,\n        uint deadline\n    ) external {\n        (bool success, bytes memory returnData) = router.delegatecall(abi.encodeWithSelector(\n            IUniswapV2Router01(router).swapExactTokensForTokens.selector, amountIn, amountOutMin, path, to, deadline\n        ));\n        assert(success);\n        emit Amounts(abi.decode(returnData, (uint[])));\n    }\n\n    function swapTokensForExactTokens(\n        address router,\n        uint amountOut,\n        uint amountInMax,\n        address[] calldata path,\n        address to,\n        uint deadline\n    ) external {\n        (bool success, bytes memory returnData) = router.delegatecall(abi.encodeWithSelector(\n            IUniswapV2Router01(router).swapTokensForExactTokens.selector, amountOut, amountInMax, path, to, deadline\n        ));\n        assert(success);\n        emit Amounts(abi.decode(returnData, (uint[])));\n    }\n\n    function swapExactETHForTokens(\n        address router,\n        uint amountOutMin,\n        address[] calldata path,\n        address to,\n        uint deadline\n    ) external payable {\n        (bool success, bytes memory returnData) = router.delegatecall(abi.encodeWithSelector(\n            IUniswapV2Router01(router).swapExactETHForTokens.selector, amountOutMin, path, to, deadline\n        ));\n        assert(success);\n        emit Amounts(abi.decode(returnData, (uint[])));\n    }\n\n    function swapTokensForExactETH(\n        address router,\n        uint amountOut,\n        uint amountInMax,\n        address[] calldata path,\n        address to,\n        uint deadline\n    ) external {\n        (bool success, bytes memory returnData) = router.delegatecall(abi.encodeWithSelector(\n            IUniswapV2Router01(router).swapTokensForExactETH.selector, amountOut, amountInMax, path, to, deadline\n        ));\n        assert(success);\n        emit Amounts(abi.decode(returnData, (uint[])));\n    }\n\n    function swapExactTokensForETH(\n        address router,\n        uint amountIn,\n        uint amountOutMin,\n        address[] calldata path,\n        address to,\n        uint deadline\n    ) external {\n        (bool success, bytes memory returnData) = router.delegatecall(abi.encodeWithSelector(\n            IUniswapV2Router01(router).swapExactTokensForETH.selector, amountIn, amountOutMin, path, to, deadline\n        ));\n        assert(success);\n        emit Amounts(abi.decode(returnData, (uint[])));\n    }\n\n    function swapETHForExactTokens(\n        address router,\n        uint amountOut,\n        address[] calldata path,\n        address to,\n        uint deadline\n    ) external payable {\n        (bool success, bytes memory returnData) = router.delegatecall(abi.encodeWithSelector(\n            IUniswapV2Router01(router).swapETHForExactTokens.selector, amountOut, path, to, deadline\n        ));\n        assert(success);\n        emit Amounts(abi.decode(returnData, (uint[])));\n    }\n}\n",
  "sourcePath": "/Users/aslan/Desktop/Everything/mevdex-contracts/periphery/contracts/test/RouterEventEmitter.sol",
  "compiler": {
    "name": "solc",
    "version": "0.6.6+commit.6c089d02.Emscripten.clang"
  },
  "schemaVersion": "3.4.3",
  "updatedAt": "2023-03-25T23:41:03.708Z",
  "devdoc": {
    "methods": {}
  },
  "userdoc": {
    "methods": {}
  }
}