{
  "contractName": "MevdexETHUSDC",
  "abi": [
    {
      "inputs": [],
      "payable": false,
      "stateMutability": "nonpayable",
      "type": "constructor"
    },
    {
      "constant": true,
      "inputs": [],
      "name": "USDC_DECIMALS",
      "outputs": [
        {
          "internalType": "uint256",
          "name": "",
          "type": "uint256"
        }
      ],
      "payable": false,
      "stateMutability": "view",
      "type": "function"
    },
    {
      "constant": true,
      "inputs": [],
      "name": "WETH_DECIMALS",
      "outputs": [
        {
          "internalType": "uint256",
          "name": "",
          "type": "uint256"
        }
      ],
      "payable": false,
      "stateMutability": "view",
      "type": "function"
    },
    {
      "constant": true,
      "inputs": [],
      "name": "k",
      "outputs": [
        {
          "internalType": "uint256",
          "name": "",
          "type": "uint256"
        }
      ],
      "payable": false,
      "stateMutability": "view",
      "type": "function"
    },
    {
      "constant": true,
      "inputs": [],
      "name": "priceLast",
      "outputs": [
        {
          "internalType": "uint112",
          "name": "",
          "type": "uint112"
        }
      ],
      "payable": false,
      "stateMutability": "view",
      "type": "function"
    },
    {
      "constant": true,
      "inputs": [],
      "name": "reserve0",
      "outputs": [
        {
          "internalType": "uint112",
          "name": "",
          "type": "uint112"
        }
      ],
      "payable": false,
      "stateMutability": "view",
      "type": "function"
    },
    {
      "constant": true,
      "inputs": [],
      "name": "reserve1",
      "outputs": [
        {
          "internalType": "uint112",
          "name": "",
          "type": "uint112"
        }
      ],
      "payable": false,
      "stateMutability": "view",
      "type": "function"
    },
    {
      "constant": true,
      "inputs": [],
      "name": "swapReserve0",
      "outputs": [
        {
          "internalType": "uint112",
          "name": "",
          "type": "uint112"
        }
      ],
      "payable": false,
      "stateMutability": "view",
      "type": "function"
    },
    {
      "constant": true,
      "inputs": [],
      "name": "swapReserve1",
      "outputs": [
        {
          "internalType": "uint112",
          "name": "",
          "type": "uint112"
        }
      ],
      "payable": false,
      "stateMutability": "view",
      "type": "function"
    },
    {
      "constant": true,
      "inputs": [],
      "name": "token0",
      "outputs": [
        {
          "internalType": "address",
          "name": "",
          "type": "address"
        }
      ],
      "payable": false,
      "stateMutability": "view",
      "type": "function"
    },
    {
      "constant": true,
      "inputs": [],
      "name": "token1",
      "outputs": [
        {
          "internalType": "address",
          "name": "",
          "type": "address"
        }
      ],
      "payable": false,
      "stateMutability": "view",
      "type": "function"
    },
    {
      "constant": false,
      "inputs": [
        {
          "internalType": "uint256",
          "name": "id",
          "type": "uint256"
        },
        {
          "internalType": "address",
          "name": "_address",
          "type": "address"
        }
      ],
      "name": "setFeeder",
      "outputs": [],
      "payable": false,
      "stateMutability": "nonpayable",
      "type": "function"
    }
  ],
  "bytecode": "0x60806040526001600a5534801561001557600080fd5b50620249f06009819055506105f88061002f6000396000f3fe608060405234801561001057600080fd5b50600436106100a95760003560e01c8063b3a6d5fd11610071578063b3a6d5fd14610200578063b4f40c611461023e578063bcf2edf71461025c578063c1419def1461029a578063d08aef7c146102b8578063d21220a7146102d6576100a9565b80630dfe1681146100ae578063443cb4bc146100f85780635a76f25e146101365780636a3c1ef81461017457806397c210e2146101b2575b600080fd5b6100b6610320565b604051808273ffffffffffffffffffffffffffffffffffffffff1673ffffffffffffffffffffffffffffffffffffffff16815260200191505060405180910390f35b610100610346565b60405180826dffffffffffffffffffffffffffff166dffffffffffffffffffffffffffff16815260200191505060405180910390f35b61013e610366565b60405180826dffffffffffffffffffffffffffff166dffffffffffffffffffffffffffff16815260200191505060405180910390f35b61017c610386565b60405180826dffffffffffffffffffffffffffff166dffffffffffffffffffffffffffff16815260200191505060405180910390f35b6101fe600480360360408110156101c857600080fd5b8101908080359060200190929190803573ffffffffffffffffffffffffffffffffffffffff1690602001909291905050506103a6565b005b61020861054d565b60405180826dffffffffffffffffffffffffffff166dffffffffffffffffffffffffffff16815260200191505060405180910390f35b61024661056d565b6040518082815260200191505060405180910390f35b610264610573565b60405180826dffffffffffffffffffffffffffff166dffffffffffffffffffffffffffff16815260200191505060405180910390f35b6102a2610593565b6040518082815260200191505060405180910390f35b6102c0610598565b6040518082815260200191505060405180910390f35b6102de61059d565b604051808273ffffffffffffffffffffffffffffffffffffffff1673ffffffffffffffffffffffffffffffffffffffff16815260200191505060405180910390f35b600460009054906101000a900473ffffffffffffffffffffffffffffffffffffffff1681565b6007600e9054906101000a90046dffffffffffffffffffffffffffff1681565b600860009054906101000a90046dffffffffffffffffffffffffffff1681565b600760009054906101000a90046dffffffffffffffffffffffffffff1681565b600360009054906101000a900473ffffffffffffffffffffffffffffffffffffffff1673ffffffffffffffffffffffffffffffffffffffff163373ffffffffffffffffffffffffffffffffffffffff1614610469576040517f08c379a00000000000000000000000000000000000000000000000000000000081526004018080602001828103825260118152602001807f4d65766465783a204e4f54204f574e455200000000000000000000000000000081525060200191505060405180910390fd5b60018214156104b357806000806101000a81548173ffffffffffffffffffffffffffffffffffffffff021916908373ffffffffffffffffffffffffffffffffffffffff1602179055505b60028214156104fe5780600160006101000a81548173ffffffffffffffffffffffffffffffffffffffff021916908373ffffffffffffffffffffffffffffffffffffffff1602179055505b60038214156105495780600260006101000a81548173ffffffffffffffffffffffffffffffffffffffff021916908373ffffffffffffffffffffffffffffffffffffffff1602179055505b5050565b6006600e9054906101000a90046dffffffffffffffffffffffffffff1681565b60095481565b600660009054906101000a90046dffffffffffffffffffffffffffff1681565b600681565b601281565b600560009054906101000a900473ffffffffffffffffffffffffffffffffffffffff168156fea265627a7a72315820f27946fd02fdb6ed5bc5e2893a17fddf47d5355288d71f6e15a460a38839a40464736f6c63430005100032",
  "source": "pragma solidity =0.5.16;\n\nimport './libraries/SafeMath.sol';\nimport './libraries/UQ112x112.sol';\n\ncontract MevdexETHUSDC {\n    using SafeMath  for uint;\n    using UQ112x112 for uint224;\n\n    address private priceFeed1;\n    address private priceFeed2;\n    address private priceFeed3;\n    address private owner;\n\n    uint public constant WETH_DECIMALS = 18;\n    uint public constant USDC_DECIMALS = 6;\n\n    address public token0;\n    address public token1;\n\n    // in / out calculated by these quantities\n    uint112 public swapReserve0;\n    uint112 public swapReserve1;\n    uint112 public priceLast;\n\n    // actual values\n    uint112 public reserve0;\n    uint112 public reserve1;\n\n    uint public k;\n\n    uint private unlocked = 1;\n    modifier lock() {\n        require(unlocked == 1, 'Mevdex: LOCKED');\n        unlocked = 0;\n        _;\n        unlocked = 1;\n    }\n\n    modifier onlyOwner() {\n        require(msg.sender == owner, 'Mevdex: NOT OWNER');\n        _;\n    }\n\n    modifier feeder() {\n        require(msg.sender == priceFeed1 || msg.sender == priceFeed2 || msg.sender == priceFeed3);\n        _;\n    }\n\n    // function _safeTransfer(address token, address to, uint value) private {\n    //     (bool success, bytes memory data) = token.call(abi.encodeWithSelector(SELECTOR, to, value));\n    //     require(success && (data.length == 0 || abi.decode(data, (bool))), 'UniswapV2: TRANSFER_FAILED');\n    // }\n\n    constructor() public {\n        k = 150000;\n    }\n\n    function setFeeder(uint id, address _address) external onlyOwner {\n        if (id == 1) priceFeed1 = _address;\n        if (id == 2) priceFeed2 = _address;\n        if (id == 3) priceFeed3 = _address;\n    }\n}",
  "sourcePath": "/Users/aslan/Desktop/Everything/mevdex-contracts/contracts/MevdexPair.sol",
  "compiler": {
    "name": "solc",
    "version": "0.5.16+commit.9c3226ce.Emscripten.clang"
  },
  "schemaVersion": "3.4.3",
  "updatedAt": "2023-02-28T03:19:51.012Z",
  "devdoc": {
    "methods": {}
  },
  "userdoc": {
    "methods": {}
  }
}